{
  "contractName": "Election",
  "abi": [
    {
      "constant": true,
      "inputs": [],
      "name": "candidate",
      "outputs": [
        {
          "name": "",
          "type": "string"
        }
      ],
      "payable": false,
      "stateMutability": "view",
      "type": "function"
    },
    {
      "inputs": [
        {
          "name": "",
          "type": "address"
        }
      ],
      "payable": false,
      "stateMutability": "nonpayable",
      "type": "constructor"
    }
  ],
  "bytecode": "0x608060405234801561001057600080fd5b506040516020806102d9833981018060405281019080805190602001909291905050506040805190810160405280600b81526020017f43616e64696461746520310000000000000000000000000000000000000000008152506000908051906020019061007e929190610085565b505061012a565b828054600181600116156101000203166002900490600052602060002090601f016020900481019282601f106100c657805160ff19168380011785556100f4565b828001600101855582156100f4579182015b828111156100f35782518255916020019190600101906100d8565b5b5090506101019190610105565b5090565b61012791905b8082111561012357600081600090555060010161010b565b5090565b90565b6101a0806101396000396000f300608060405260043610610041576000357c0100000000000000000000000000000000000000000000000000000000900463ffffffff1680636c8381f814610046575b600080fd5b34801561005257600080fd5b5061005b6100d6565b6040518080602001828103825283818151815260200191508051906020019080838360005b8381101561009b578082015181840152602081019050610080565b50505050905090810190601f1680156100c85780820380516001836020036101000a031916815260200191505b509250505060405180910390f35b60008054600181600116156101000203166002900480601f01602080910402602001604051908101604052809291908181526020018280546001816001161561010002031660029004801561016c5780601f106101415761010080835404028352916020019161016c565b820191906000526020600020905b81548152906001019060200180831161014f57829003601f168201915b5050505050815600a165627a7a72305820c77efe9cef0298089e390e6e17fea8dc7c6d9d5a981c7331941b667065367e9d0029",
  "source": "pragma solidity ^0.4.24;\n\ncontract Election {\n\n\tstring public candidate;\n\n\tconstructor(Election) public {\n\t\tcandidate = \"Candidate 1\";\n\t}\n}",
  "sourcePath": "/Users/allen/Projects/dapps/elections/contracts/Election.sol",
  "compiler": {
    "name": "solc",
    "version": "0.4.24+commit.e67f0147.Emscripten.clang"
  },
  "schemaVersion": "2.0.1",
  "updatedAt": "2018-12-07T03:26:23.037Z"
}